S014000067616D65706C61794C6F6F702E7372656326
S21401009497610C00938141E41701FF03130141F6B4
S2140100A41385818817E61300130646A73306A64070
S2140100B493050000EF10506017250000130545DA7C
S2140100C4EF108020EF10D04F130500009305410078
S2140100D413060000EF00D07A6F10402037550D004C
S2140100E437570D009307456D1307476D630AF700ED
S2140100F493070000638607001305456D67800700B4
S2140101046780000037550D009307456D37570D007E
S2140101149305476DB385F54093D7254093D5F501EF
S214010124B385F50093D51540638A0500930700004F
S214010134638607001305456D678007006780000026
S214010144130101FF2324810083C7818C2326110018
S21401015463940702EFF09FF893070000638A070091
S21401016437550D001305050097000000E700000051
S214010174930710002384F18C8320C100032481009B
S21401018413010101678000009307000063860702DC
S21401019437550D00130101FF9385C18C1305050026
S2140101A42326110097000000E70000008320C10009
S2140101B4130101016FF01FF56FF0DFF4130800005F
S2140101C49305F0FF37C6030093080028930608003A
S2140101D41307000083A7818AB307F700B387D70004
S2140101E42390B70013070740E316C7FE1308280039
S2140101F4E31E18FD6780000013080600131515009A
S214010204130365049398A50037A600003386C80037
S214010214930605001387080083A7818AB307F700AE
S214010224B387D7002390070113070740E316C7FED9
S21401023413052500E31E65FC67800000938E050008
S2140102449356F54113F736003307A70093D6E60114
S2140102543308D500137838003308D8401306B0FFA6
S2140102649388418E13182800338808019377C7FFB3
S214010274B388F80013039001930F00FE130F800256
S2140102849305E0016F0040052390F701938616005D
S2140102946380E60503A7818A83270800B387F600EF
S2140102A49397A700B387E70003A708013307E50080
S2140102B413171700B387E700E368C3FC1387B6FF79
S2140102C4E3E4E5FC2390D701938616006FF09FFCC8
S2140102D4130616006308B6001305560093060000BD
S2140102E46FF05FFB6780000083A7018963860714AC
S2140102F4130101FC232E1102232C8102232A9102CD
S21401030423282103232631032324410323225103D3
S21401031423206103232E7101232C8101232A9101B9
S2140103242328A1012326B101938A4191130B0000CE
S21401033493094000938B4186938D418E138D0D0155
S2140103446F00800813060000832509000325CCFFEF
S214010354EFF09FEA03A54189630E85029384240086
S2140103641309490013041400630634058397040033
S214010374E38A07FC03A5418983A74B006382A7028E
S21401038403A54189E31C85FC9305F0FFEFF01FEB01
S2140103946FF0DFFC93050000EFF05FEA6FF01FFCDF
S2140103A493171500B387FD0083950703EFF01FE944
S2140103B46FF01FFD93894900130B4B00938A8A0043
S2140103C493074002638CF9001389418E13040B00D2
S2140103D493840A00330C3D016FF05FF9B73720FFB1
S2140103E41307100023A0E702373720FF1307C702BD
S2140103F48327070093F71700E39C07FE8320C103B6
S2140104040324810383244103032901038329C102AD
S214010414032A8102832A4102032B0102832BC10191
S214010424032C8101832C4101032D0101832DC1007D
S2140104341301010467800000B73720FF130710007B
S21401044423A0E702373720FF1307C70283270700D5
S21401045493F71700E39C07FE67800000130101FF72
S21401046423261100138605009386418E1357F54102
S2140104741358E701B307050193F73700B38707411C
S21401048493972700B387F600137737003307A7003F
S2140104941377C7FFB386E60083A5070003A5060105
S2140104A4EFF09FD58320C10013010101678000008E
S2140104B4130101FF23261100232481001384F5FF71
S2140104C4635E800423229100232021011309050081
S2140104D493951500B304B5006F0000011304F4FFEF
S2140104E49384E4FF63080402EF0010639307140087
S2140104F43365F502E30485FE0397E4FF131515003F
S214010504B307A90083960700239FD4FE2390E70030
S2140105146FF0DFFC83244100032901008320C1001E
S21401052403248100130101016780000083A6C186AC
S21401053403A6018903A7418A130800009308000F44
S2140105446F000003032507009317050163CC07001A
S21401055483A7060093F71700E38607FEE30406FE67
S214010564678000001375F50F630E15036386050097
S214010574930508006FF0DFFD1306000F83270700BD
S21401058493960701E3DC06FE93F7F70FE398C7FE9D
S2140105948327070093960701E3DC06FE83270700FB
S2140105A467800000930510006FF09FFA83A7818A85
S2140105B49395A500B385F50013151500B385A5001D
S2140105C42390C50067800000130101FF2326110054
S2140105D41386418E930750002328F6009307800262
S2140105E4232AF6009307B004232CF6009307E006AB
S2140105F4232EF600930710092320F6029307400BD7
S2140106042322F6029307700D2324F6029307A00F04
S2140106142326F602930720032320F6009307F0050A
S2140106242322F6009307C0082324F6009307900BB1
S2140106342326F60037570D00130707019307060311
S21401064413060607831607002390D7002391D700C5
S2140106541307270093874700E316F6FE13050000E9
S214010664EF108041EF00504A930500021385419133
S214010674EFF01FE48320C10013010101678000002D
S214010684130101FF23261100232481002322910054
S21401069483A7018783A7070023A4F18AEFF01FB27B
S2140106A4EFF09FC483A7018783A7470023A4F18A99
S2140106B4EFF0DFB08320C1000324810083244100CE
S2140106C413010101678000009388050013080600E2
S2140106D493850600373720FF930680002320D7042E
S2140106E423200704635C1005131326001306050074
S2140106F413050000373720FF130707046F00400374
S2140107048347670093F7F70FE38C07FE83270600FA
S2140107142324F700832706002326F7009386160072
S214010724E390D5FE330505013306660063581501CB
S21401073493060000E346B0FC6FF0DFFE678000001E
S21401074403A7C1862320070083A7C1863717AF2FC7
S2140107541307078023A4E700373700001307F7FAC7
S21401076423A6E7001307400023A2E70067800000E2
S214010774130101FB2326110423248104232291045B
S21401078423202105232E3103232C4103232A51033D
S214010794232861032326710323248103232291033F
S2140107A42320A103232EB101EFF09FED9307100040
S2140107B423A8F18823A0018A23AE018823ACF184FF
S2140107C423AC018823AA018837AA0400130A8A16CF
S2140107D4130920039309D002930AE00E6F00000167
S2140107E4130A2A00130919006306590393040A001D
S2140107F4130400000396040093050400130509007E
S214010804EFF0DFDA1304140093848417E31434FF3F
S2140108146FF01FFDEFF05FADB7A70400138A8716CC
S214010824130920039309D002930AE00E6F00000116
S214010834130A2A00130919006306590393040A00CC
S214010844130400000396040093050400130509002D
S214010854EFF0DFD51304140093848417E31434FFF4
S2140108646FF01FFD23240100130BF0FF930AF0FF22
S214010874138A4186938B418E138CC1856F008079D0
S214010884938C2C00130919006306A90393840C00A6
S21401089413040000039604009305040013050900DD
S2140108A4EFF0DFD01304140093848417E31434FFA9
S2140108B46FF01FFDEFF05FA3EFF09FE823A601881A
S2140108C423A4018823220100B7D701009387C75BBD
S2140108D42326F1006F00805137D501001305453CEE
S2140108E4EF100002EFF05FA0B76C0400938C0CE4E9
S2140108F4130920039309D002130DE00E6F000001C3
S214010904938C2C00130919006306A90393840C0025
S21401091413840D00039604009305040013050900CF
S214010924EFF0DFC8130414009384E417E31434FFD0
S2140109346FF01FFDEFF05F9B6FF01FF883A74189EF
S21401094413F73700630E07309386F7FF23AAD1887F
S214010954138B0A00938A07006F00803083A74189AE
S21401096413073000635EF72E9386C7FF23AAD18848
S214010974138B0A00938A07006F00802E83A7418990
S2140109841387170093763700638C062C23AAE18815
S214010994138B0A00938A07006F00802C83A7418972
S2140109A41307B001634EF72A9386470023AAD1881A
S2140109B4138B0A00938A07006F00802A83A7418954
S2140109C4139717003387EB0003170703630C070E0F
S2140109D403270A009306F0FF6304D70C638CE70C25
S2140109E42322FA0083274100938717002322F1006C
S2140109F4930710000327410063D4E7269305F0FF0D
S214010A0413850A00EFF09FA503250A009317150026
S214010A14B387FB0083950703EFF05F8203254A0043
S214010A2493171500B387FB0083950703EFF01F8127
S214010A34EFF09F8B03270A00131717003387EB0089
S214010A4483274A0093971700B387FB00031707030E
S214010A54839707036300F70837D501001305C540DC
S214010A64EF00106A9306100013061000B745000045
S214010A74938545F437E5040013050538EFF0DFC424
S214010A841307100023A6E18883A78185639C070AC0
S214010A9493070D00130710002322E1006F00000BDB
S214010AA42320FA0083274100938717002322F100AD
S214010AB46FF01FF437D501001305853DEF00506430
S214010AC46F00001A37D501001305C53EEF005063C9
S214010AD46F00001937D5010013050540EF00506279
S214010AE483270A0093971700B387FB00239807020E
S214010AF483274A0093971700B387FB0023980702BE
S214010B049306100013061000B73500009385056C94
S214010B1437E50600130505DAEFF01FBB13071000CF
S214010B2423A6E18883278100938727002324F100E5
S214010B3483A78185638A070483A7018A938717009D
S214010B4423A0F18A2322A1019307100083264100E2
S214010B5423ACD18423ACF188B797980093870768B0
S214010B649387F7FFE39E07FE8327410063900706FA
S214010B74B76C0400938C0CE4130920039309D00288
S214010B84930DE00E6F00C00683A7C18993871700F3
S214010B9423AEF1886FF0DFEF938C2C001309190054
S214010BA4630CB90793840C0013040D000396040028
S214010BB49305040013050900EFF05F9F1304140066
S214010BC493848417E31434FF6FF01FFDB7A7040062
S214010BD4938C8716130920039309D002930DE00E14
S214010BE46FF05FFC938C2C00130919006306B9039C
S214010BF493840C0003244100039604009305040027
S214010C0413050900EFF09F9A130414009384E41764
S214010C14E31434FF6FF01FFD9305F0FF03250A006C
S214010C24EFF0DF839305F0FF03254A00EFF01F83FF
S214010C3437D501001305C541EF00904C83270A0000
S214010C442320FC0083274A002322FC009307F0FF9D
S214010C542320FA002322FA00EFF00FE92322A10150
S214010C649307F0FF6318FB089307F0FF639CFA08E9
S214010C749305F0FF03250C00EFF04FFE9305F0FFFC
S214010C8403254C00EFF08FFD9305F0FF03A5418982
S214010C94EFF0CFDA03250A009307F0FF631CF5068D
S214010CA403254A009307F0FF631CF506EFF0CFE334
S214010CB483A7018703A7470023A4E18A9305F0FFCE
S214010CC403250C00EFF08FF99305F0FF03254C0084
S214010CD4EFF0CFF883AD818563940D08B76C0400FB
S214010CE4938C0CE4130920039309D002130DE00E30
S214010CF46F0040099305F0FF13050B00EFF00FF6A4
S214010D046FF09FF69305F0FF13850A00EFF00FF5D9
S214010D146FF01FF69305F0FFEFF04FD26FF05FF818
S214010D249305F0FFEFF08FD16FF05FF8938C2C00F2
S214010D3413091900630CB90793840C0013040D00FE
S214010D44039604009305040013050900EFF01F86BB
S214010D541304140093848417E31434FF6FF01FFD07
S214010D64B7A70400938C8716130920039309D002AE
S214010D74930DE00E6FF05FFC938C2C0013091900A1
S214010D846306A90393840C0013840D0003960400E0
S214010D949305040013050900EFF05F8113041400A2
S214010DA49384E417E31434FF6FF01FFD03A6418711
S214010DB4B7D701009387875F03A7C1891317270055
S214010DC43387E700032707001317070183A6018A61
S214010DD493962600B387D70083A70700B367F70067
S214010DE42320F60083A7C1886390072283A7C186C0
S214010DF403AD0700137D1D00631A0D0283A7418707
S214010E0483A70700EFF08FF2930755FE93F6F70FCB
S214010E141307E000E36ED7BC939726000327C100AF
S214010E24B387E70083A707006780070003ADC1887F
S214010E34631C0D1C13844186930984009304F0FFFC
S214010E446F00C0059305F0FF13050B00EFF00FE1EB
S214010E546F0000059305F0FF13850A00EFF00FE01D
S214010E646F0040049305F0FF13050B00EFF00FDF4E
S214010E746F0000069305F0FF03250900EFF00FDE6F
S214010E849307F0FF2320F90083A78188938717002F
S214010E9423A4F1881304440063888904E3149BFAA9
S214010EA4E39A9AFA1309040003250400E30495FE61
S214010EB49305F0FFEFF08FDAEFF00FC383A70187F6
S214010EC403A7470023A4E18A9307F0FFE31CFBF87A
S214010ED49307F0FFE380FAFA9305F0FF13850A00FF
S214010EE4EFF0CFD76FF01FF983A781886350F00422
S214010EF4EFF08FBF83A7018703A7470023A4E18AE6
S214010F0483AD818563840D0623AC01841307100029
S214010F1423ACE188B76C0400938C0CE4130920031A
S214010F249309D002930DE00E6F00800AEFF0CFBB59
S214010F3483A7018703A7470023A4E18A9307F0FF49
S214010F44631EFB009307F0FFE38CFAFA9305F0FFA8
S214010F5413850A00EFF08FD06FF09FFA9305F0FF28
S214010F6413050B00EFF08FCF6FF0DFFD13071000B2
S214010F7423ACE18423AC0188B7A70400938C8716BD
S214010F84130920039309D002130DE00E6F0000012C
S214010F94938C2C00130919006300A90793840C0091
S214010FA413840D0003960400930504001305090039
S214010FB4EFF0CFDF1304140093848417E31434FF93
S214010FC46FF01FFD938C2C00130919006306B903F7
S214010FD493840C0013040D00039604009305040087
S214010FE413050900EFF08FDC130414009384E4174F
S214010FF4E31434FF6FF01FFDEFF00FAF83A70187F3
S21401100403A7470023A4E18A9307F001032781007D
S21401101463CAE70283AD8185E3800D8C37D5010071
S2140110241305053BEF00D00DEFF00FACB7A7040096
S214011034938C8716130920039309D002130DE00E2F
S2140110446FF0DF848320C1040324810483244104D4
S214011054032901048329C103032A8103832A410343
S214011064032B0103832BC102032C8102832C41022F
S214011074032D0102832DC1011301010567800000C0
S214011084130101FD23261102232481022322910246
S21401109423202103232E3101232C4101232A51012C
S2140110A4232861012326710123248101232291012E
S2140110B42320A101B70720FF9387071023A2F18AF3
S2140110C41307F00F23A0E70003A70187B727110032
S2140110D49387C7822322F700EFF00FA183A7018726
S2140110E483A7070023A4F18AEFF04F8D03A7018796
S2140110F4B7670D009387C7822322F700832747002B
S21401110423A4F18AEFF08F8BEFF00F9E83A701875C
S21401111483A7470023A4F18A37FC0A00373B04005F
S214011124130B0BE2372A0000130A0A86B30B4B0192
S214011134B74A0400938A0A63338A4A016F00800C13
S21401114437D5010013050543EF0040693729000030
S2140111541309098133892A019309E010B7ECFFFFCB
S214011164938C0C7F330499019304F0000316040056
S2140111749385040013850900EFF04FC31304040597
S21401118493841400E31424FF938919001309290096
S214011194E31A49FD6F00C0059385070037D50100A2
S2140111A413054545EF0080633729000013090981BB
S2140111B433092B019309E010B7ECFFFF938C0C7FE6
S2140111C4330499019304F000031604009385040084
S2140111D413850900EFF08FBD1304040593841400EE
S2140111E4E31424FF9389190013092900E31A79FDEE
S2140111F4EFF08F8F13049002EFF04FB3E31E85FEDA
S214011204EFF00FC8EFF04FBC930C0CBA138D0C28FB
S214011214130900009309000F93840C0013040000C3
S214011224039604009305040013050900EFF00FB8B4
S2140112341304140093840428E31434FF13091900D7
S214011244938C2C00E39AACFDEFF00F8A1304900202
S214011254EFF0CFADE31E85FEEFF08FC2EFF04FD176
S214011264B79C0800938C0C3A138D0C2813090000C4
S2140112749309000F93840C001304000003960400E2
S2140112849305040013050900EFF04FB2130414008C
S21401129493840428E31434FF13091900938C2C0057
S2140112A4E39AACFD23A8018883A5018A83A7C18993
S2140112B4E3C8B7E8E3C2F5EE37D501001305854761
S2140112C4EF0000646FF0DFF293050500930600005B
S2140112D413060000130500006F009054130101FF6C
S2140112E4930500002324810023261100130405001E
S2140112F4EF00D05C83A7C18A63840700E7800700F8
S21401130413050400EF90005383A7818723ACA70835
S21401131423AE07086780000003A88187B785954C2C
S21401132437F65158832688090327C8099385D5F2C9
S2140113341306D642B387B6023386C6021385170050
S214011344B337F500232CA8083307B702B3B6B602A1
S2140113543307C7003307D700B387E7001395170091
S214011364232EF808135515006780000013050000A6
S2140113746780000037560D00B755010037550D003C
S214011384130606039385C5E5130505046F00C035EA
S214011394130101FF832545002324810037E414004B
S2140113A423229100232611001304C482930405000A
S2140113B463848500EF30502A83A58400930784064E
S2140113C46386F50013850400EF30102983A5C40055
S2140113D41304040D638E8500032481008320C10059
S2140113E41385040083244100130101016F30D026C4
S2140113F48320C100032481008324410013010101D9
S214011404678000001305000067800000130101FED9
S214011414232C8100B717010037E414001304C48297
S21401142493878737232E1100232A9100232821012D
S214011434232631012324410123A6F18A13068000C1
S21401144493074000930500001305C4052326F40002
S2140114542320040023220400232404002322040658
S21401146423280400232A0400232C0400EF00D0249C
S214011474B7070100372A0100B729010037290100FF
S214011484B7240100130A0A91938949971309C99F3E
S214011494938444A79387970013068000930500005E
S2140114A41305440C23204403232234032324240356
S2140114B423269402232AF406232E840023240406D6
S2140114C423260406232804062326040C232C0406B8
S2140114D4232E040623200408EF00101EB70702007B
S2140114E413078406938727011305C4121306800085
S2140114F493050000232444092326340923282409B8
S214011504232A9408232EF40C2322E4082328040C0B
S214011514232A040C232C040C232A04122320040E4D
S2140115242322040E2324040EEF0010199307040D3E
S2140115342328440F232A340F232C240F232E940EFE
S2140115448320C1012326F40E03248101832441014F
S214011554032901018329C100032A81001301010221
S2140115646780000083A7C18A130101FE2326310187
S214011574232E1100232C8100232A910023282101E4
S214011584930905006388070E37590D0013090903EB
S2140115949304F0FF83274900032489009387F7FF08
S2140115A463D807006F00000813048406638C97064B
S2140115B40317C4009387F7FFE31807FEB707FFFF77
S2140115C4938717002326F40023220406232004000D
S2140115D4232404002322040023280400232A0400CD
S2140115E4232C040013068000930500001305C4058C
S2140115F4EF00900C23280402232A04022322040465
S214011604232404048320C101130504000324810157
S21401161483244101032901018329C1001301010225
S214011624678000000324090063060400130904000C
S2140116346FF05FF69305C01A13850900EF00907FDB
S21401164413040500630C05021305C5009307400047
S214011654232004002322F4002324A4001306001AE2
S21401166493050000EF0050052320890013090400A8
S2140116746FF05FF2EFF09FD96FF01FF1232009009E
S2140116849307C00023A0F9006FF0DFF78327450313
S214011694638407006780000003A7C18AB7170100A7
S2140116A493874739232AF502E31607FE6FF01FD600
S2140116B4678000006780000037560D00B7150100EB
S2140116C41306060393850537130500006F00C00152
S2140116D437560D00B715010013060603938585409A
S2140116E4130500006F004000130101FD23202103B0
S2140116F4232E3101232C4101232A51012328610180
S2140117042326710123261102232481022322910216
S214011714130B0500938B0500930A0600130A0000B9
S214011724930910001309F0FF83A44A0003A48A0056
S2140117349384F4FF63C804028357C40063FEF9006C
S2140117448317E4009305040013050B006386270141
S214011754E7800B00336AAA009384F4FF130484061B
S214011764E39C24FD83AA0A00E3900AFC8320C102B9
S2140117740324810283244102032901028329C1012E
S214011784832A4101032B0101832BC10013050A009F
S214011794032A81011301010367800000130101FC80
S2140117A42324C1022326D1022328E102232AF1029B
S2140117B4232C0103232E110313860500832585009C
S2140117C493068102232E11002326D100EF10006315
S2140117D48320C101130101046780000003A38187EC
S2140117E4130101FC2324C1022326D1022322B102C0
S2140117F42328E102232AF102232C0103232E1103B9
S214011804832583009306410213060500130503008E
S214011814232E11002326D100EF10405E8320C10140
S2140118241301010467800000130101FC232C8102CB
S2140118341304050013850500232A9102232E1102A1
S21401184493840500EF000075B7D701009387074519
S2140118542324F102930710002326F10203274403ED
S2140118649307010293061500232AF100930720002B
S214011874232091022322A102232ED100232CF1003E
S21401188483258400630007060397C50083A74506DE
S2140118949316270163C00602B7E6FFFF9386F6FF99
S2140118A4372600003367C700B3F7D7002396E50051
S2140118B423A2F50613972701634007041306410183
S2140118C413050400EF30901D631805021305A000EC
S2140118D48320C103032481038324410313010104E8
S2140118E467800000130504002326B100EFF01FDA19
S2140118F48325C1006FF05FF91305F0FF6FF05FFDFC
S2140119049305050003A581876FF01FF2130101FFFC
S21401191423248100138405008395E5002326110002
S214011924EF00003D63400502832704058320C100C0
S214011934B387A7002328F4040324810013010101BB
S214011944678000008357C40037F7FFFF1307F7FFCC
S214011954B3F7E7008320C1002316F40003248100B3
S2140119641301010167800000130500006780000071
S2140119748397C500130101FE232C8100232A9100BD
S2140119842328210123263101232E110013F70710E2
S21401199413840500930405001309060093890600C1
S2140119A46310070437F7FFFF1307F7FFB3F7E700E2
S2140119B48315E4002316F400032481018320C10166
S2140119C493860900130609008329C100032901012E
S2140119D41385040083244101130101026F00C037FB
S2140119E48395E5009306200013060000EF00C02946
S2140119F48317C4006FF01FFB130101FF232481002A
S214011A04138405008395E50023261100EF00C02703
S214011A149307F0FF6308F5028357C40037170000E5
S214011A248320C100B3E7E7009397070193D70741E3
S214011A342328A4042316F4000324810013010101BE
S214011A44678000008357C40037F7FFFF1307F7FFCB
S214011A54B3F7E7009397070193D707418320C100A3
S214011A642316F4000324810013010101678000009A
S214011A748395E5006F000007130101FE232C810006
S214011A841304050003A581871307F0FF9307F0FFEE
S214011A941306000093050100232E11002320E10004
S214011AA42322F100EF000018634805020327010012
S214011AB483274100630604002320E4002322F40064
S214011AC48320C101032481011305070093850700C0
S214011AD413010102678000001307F0FF9307F0FF6C
S214011AE46FF05FFD130101FF23248100232291007F
S214011AF413040500138505002326110023A8018A73
S214011B04EF80D0529307F0FF630CF5008320C100E9
S214011B14032481008324410013010101678000002E
S214011B2483A7018BE38407FE8320C1002320F400EE
S214011B34032481008324410013010101678000000E
S214011B4483A78187638EA70C83254504130101FEB1
S214011B54232A9100232E1100232C810093040500CF
S214011B646388050423282101232631011309000073
S214011B7493090008B387250103A40700630E040034
S214011B84930504000324040013850400EF00407A3F
S214011B94E31804FE83A5440413094900E31C39FD34
S214011BA413850400EF00C078032901018329C100CD
S214011BB483A584036386050013850400EF0040773C
S214011BC403A40404630C0400930504000324040022
S214011BD413850400EF00C075E31804FE83A5C4044E
S214011BE46386050013850400EF00807483A744030D
S214011BF4638E0700032481018320C1011385040039
S214011C048324410113010102678007008320C10177
S214011C14032481018324410113010102678000002A
S214011C2467800000130101FF138705002324810048
S214011C3423229100130405009305060013050700EB
S214011C442326110023A8018AEF8010429307F0FF90
S214011C54630CF5008320C100032481008324410022
S214011C64130101016780000083A7018BE38407FE4B
S214011C748320C1002320F40003248100832441002F
S214011C841301010167800000130101FF138705009A
S214011C9423248100232291009305060013040500E2
S214011CA413860600130507002326110023A8018ABC
S214011CB4EF8090439307F0FF630CF5008320C10087
S214011CC4032481008324410013010101678000007D
S214011CD483A7018BE38407FE8320C1002320F4003D
S214011CE4032481008324410013010101678000005D
S214011CF4130101FF13870500232481002322910089
S214011D049305060013040500138606001305070051
S214011D142326110023A8018AEF80503F9307F0FF82
S214011D24630CF5008320C100032481008324410051
S214011D34130101016780000083A7018BE38407FE7A
S214011D448320C1002320F40003248100832441005E
S214011D541301010167800000130101FF13870500C9
S214011D642324810023229100930506001304050011
S214011D7413860600130507002326110023A8018AEB
S214011D84EF8050449307F0FF630CF5008320C100F5
S214011D9403248100832441001301010167800000AC
S214011DA483A7018BE38407FE8320C1002320F4006C
S214011DB4032481008324410013010101678000008C
S214011DC4130101FF23248100B7570D0037540D007A
S214011DD4232021019387470013074400232611007B
S214011DE4232291003389E7406382E702135929408D
S214011DF4130444009304000083270400938414000E
S214011E0413044400E7800700E3E824FF37540D0079
S214011E14B7570D0093878700130744003389E740BB
S214011E24135929406380E702130444009304000015
S214011E34832704009384140013044400E7800700F6
S214011E44E3E824FF8320C1000324810083244100A6
S214011E54032901001301010167800000130101FF3A
S214011E6423248100B7570D0037540D00938787004C
S214011E741304C4003304F4402322910023261100E2
S214011E8493542440638004021304C4FF3304F4000F
S214011E94832704009384F4FF1304C4FFE780070038
S214011EA4E39804FE8320C1000324810083244100B7
S214011EB413010101678000001303F00013070500F6
S214011EC4637EC3029377F7006390070A639205085B
S214011ED4937606FF1376F600B386E6002320B70052
S214011EE42322B7002324B7002326B70013070701CC
S214011EF4E366D7FE6314060067800000B306C3409A
S214011F049396260097020000B38656006780C600A3
S214011F142307B700A306B7002306B700A305B70037
S214011F242305B700A304B7002304B700A303B7002F
S214011F342303B700A302B7002302B700A301B70027
S214011F442301B700A300B7002300B7006780000091
S214011F5493F5F50F93968500B3E5D50093960501A1
S214011F64B3E5D5006FF0DFF69396270097020000DD
S214011F74B386560093820000E78006FA9380020037
S214011F84938707FF3307F7403306F600E378C3F673
S214011F946FF0DFF39377350013070500639C07049E
S214011FA4B7867F7F9386F6F79305F0FF032607002F
S214011FB413074700B377D600B387D700B3E7C70044
S214011FC4B3E7D700E384B7FE8346C7FFB307A7404A
S214011FD4638406048346D7FF638C06020345E7FF42
S214011FE43335A0003305F5001305E5FF67800000CF
S214011FF4E38806FA8347070013071700937637002A
S214012004E39807FE3307A7401305F7FF6780000030
S2140120141385D7FF678000001385C7FF678000001C
S21401202483A7418B638C070403A747001308F001B9
S2140120346342E80813182700630605023383070181
S2140120442324C30883A88718130610003316E60052
S214012054B3E8C80023A417192324D3109306200039
S2140120646308D5021307170023A2E700B387070105
S21401207423A4B7001305000067800000B7E7140027
S2140120841388479623AA018B938747966FF0DFF947
S21401209483A6C7181307170023A2E700B3E6C600F2
S2140120A423A6D718B387070123A4B7001305000096
S2140120B4678000001305F0FF67800000130101FD2F
S2140120C4232C41012320210303A9418B232611023A
S2140120D46308090A232E3101232A510123286101A9
S2140120E423267101232481022322910223248101C0
S2140120F4130B0500938B05009309F0FF930A100058
S214012104832449001384F4FF634E04049394240047
S214012114B304990063900B088327490083A64400FF
S2140121249387F7FF638C870A23A20400638606025B
S2140121348327891833978A00032C4900B377F7005D
S21401214463960706E78006000327490083A7418BA9
S21401215463108709639E27071304F4FF9384C4FF5F
S214012164E31A34FB03248102832441028329C10137
S214012174832A4101032B0101832BC100032C810017
S2140121848320C10203290102032A810113010103E9
S2140121946780000083A74410E38077F91304F4FFF3
S2140121A49384C4FFE31834FF6FF0DFFB8327C91859
S2140121B483A544083377F7006316070213050B005B
S2140121C4E78006000327490083A7418BE30487F9C8
S2140121D4E38A07F8138907006FF09FF22322890028
S2140121E46FF0DFF413850500E78006006FF0DFF576
S2140121F4130101FE23263101B7590D00232C81005A
S214012204232A91002328210123244101232E11008E
S214012214138A05001309050093890916EF00903DFA
S21401222403A78900B71700009387F7FE83244700A6
S2140122343717000093F4C4FF3384F4003304444195
S2140122441354C4001304F4FF1314C400634EE400CF
S2140122549305000013050900EF30807783A78900F2
S214012264B38797006308F50213050900EF00D03819
S2140122748320C1010324810183244101032901012F
S2140122848329C100032A81001305000013010102FA
S21401229467800000B305804013050900EF304073E2
S2140122A49307F0FF630AF504B7E71400938747AF73
S2140122B403A7070083A68900B384844093E414002B
S2140122C4330787401305090023A2960023A0E700DD
S2140122D4EF0090328320C10103248101832441014C
S2140122E4032901018329C100032A81001305100073
S2140122F4130101026780000093050000130509001D
S214012304EF30006D03A789009306F000B307E5409C
S214012314E3DCF6F483A6C18793E717002322F700CC
S2140123243305D540B7E6140023AAA6AE6FF0DFF353
S21401233463820518130101FF2324810023229100DF
S214012344138405009304050023261100EF00902A48
S2140123540325C4FF130784FFB7550D009377E5FFE4
S2140123643306F700938505168326460003A88500E1
S21401237493F6C6FF6302C81A2322D6001375150006
S2140123843308D6006310050A032384FF0328480094
S21401239437550D00330767408328870013058516D4
S2140123A4B3876700137818006382A8140323C70051
S2140123B423A66800232413016306081A93E617006C
S2140123C42322D7002320F6009306F01F63ECF606BB
S2140123D493F687FF9386860003A54500B386D5004A
S2140123E403A6060013D8570093071000B3970701F6
S2140123F4B3E7A700138586FF2326A7002324C70077
S21401240423A2F50023A0E6002326E6000324810088
S2140124148320C100138504008324410013010101B4
S2140124246F00901D03254800137515006306050803
S21401243493E61700232ED4FE2320F6009306F01FFE
S214012444E3F8F6F893D69700130640006360D612B5
S21401245493D66700138596031386860313153500F2
S2140124643385A50083260500130585FF6318D5006B
S2140124746F00401583A686006308D50003A64600B0
S2140124841376C6FFE3E8C7FE03A5C6002326A70006
S2140124942324D700032481002324E5008320C100DC
S2140124A4138504008324410023A6E60013010101D9
S2140124B46F0090146780000037550D00B387D7006E
S2140124C41305851683268600638CA60C0328C6008E
S2140124D413E517003306F70023A606012324D800C4
S2140124E42322A7002320F6006FF01FEE631C0812B8
S2140124F4832586000326C600B386F60093E71600F6
S21401250423A6C5002324B6002322F7003307D700E9
S2140125142320D7006FF09FEF13751500B386D700FD
S21401252463100502032584FF3307A7408327C700EA
S21401253403268700B386A6002326F60023A4C70035
S21401254413E6160083A701882322C70023A4E50007
S214012554E3EEF6EA83A5018C13850400EFF05FC968
S2140125646FF0DFEAB387D7006FF0DFF5130640019B
S2140125746370D602130640056364D60693D6C70075
S2140125841385F6061386E606131535006FF05FED20
S2140125941385C6051386B605131535006FF05FEC73
S2140125A423AAE50023A8E50093E617002326A7003F
S2140125B42324A7002322D7003307F7002320F7009C
S2140125C46FF0DFE403A84500135626409307100076
S2140125D4B397C700B3E7070123A2F5006FF01FEB1B
S2140125E413064015636CD60093D6F7001385860749
S2140125F413867607131535006FF09FE613064055CC
S214012604636CD60093D627011385D6071386C607AF
S214012614131535006FF0DFE41305803F1306E0075A
S2140126246FF01FE493E617002322D7002320F60059
S2140126346FF0DFDD130101FD232E31012326110284
S2140126442324810223229102232021039387B500A8
S21401265413076001930905006362F70893070001F5
S21401266463E4B720EF000079930780019305200007
S2140126749304000137590D0013090916B307F9002D
S21401268403A44700138787FF6304E43483274400C5
S2140126948326C4000326840093F7C7FFB307F40018
S2140126A403A747002326D60023A4C60013671700F2
S2140126B41385090023A2E700EF00007413058400C4
S2140126C48320C102032481028324410203290102D7
S2140126D48329C101130101036780000093F487FF76
S2140126E463C4071863E2B418EF00C0709307701F41
S2140126F463FA973E93D79400638007181307400044
S2140127046360F73493D7640093859703138887032C
S2140127141396350037590D00130909163306C900F7
S21401272403244600130686FF630886021305F00099
S2140127346F0040018326C40063580728630ED60041
S214012744138406008327440093F7C7FF3387974013
S214012754E352E5FE93050800032409019308890062
S21401276463001427832744009306F00093F7C7FFFA
S2140127743387974063CEE636232A190123281901A5
S214012784635207341307F01F03254900636AF724CD
S21401279413F787FF130787003307E900832607002B
S2140127A413D6570093071000B397C7003365F50097
S2140127B4930787FF2326F4002324D4002322A900A9
S2140127C42320870023A6860093D7254013061000EE
S2140127D43316F600636AC50AB377A6006394070244
S2140127E41316160093F5C5FFB377A6009385450027
S2140127F4639A070013161600B377A600938545005F
S214012804E38A07FE1308F0001393350033036900C7
S214012814130503008327C500138E05006304F524FE
S21401282403A747001384070083A7C7001377C7FFCE
S214012834B30697406344D824E3C206FE3307E40094
S21401284483264700032684001385090093E61600B1
S2140128542322D7002326F60023A4C700EF00C0597D
S214012864130584006FF0DFE59307C00023A0F90089
S214012874130500006FF0DFE413060020930500043F
S2140128841308F0036FF01FE903248900232861016C
S2140128948327440013FBC7FF63689B0033079B40F1
S2140128A49307F00063CCE70C23229101232A5101FC
S2140128B403A7C18783AA018C232C41012326710116
S2140128C49307F0FF330A6401B38A5401630AF73CA1
S2140128D4B71700009387F700B38AFA00B7F7FFFF2C
S2140128E4B3FAFA0093850A0013850900EF30400E07
S2140128F49307F0FF930B0500630EF544232481012F
S2140129046360452537EC1400130C4CAF83250C008B
S214012914B385BA002320BC00138705006318AA2ACE
S214012924931745016394072A832B8900B3075B0138
S21401293493E7170023A2FB0083A6C18B63F4B600BA
S21401294423AEB18A83A6818B63F4B60023ACB18A25
S214012954032C810013840B0093F7C7FF338797403A
S21401296463EC97389307F00063D8E738032A8101AC
S214012974832A4101832BC100832C410093E7140071
S2140129842322F400B3049400232499001367170048
S2140129941385090023A2E400EF0000468320C10248
S2140129A41305840003248102032B010183244102BD
S2140129B4032901028329C101130101036780000071
S2140129C4032549006FF05FE0032684006FF01FCDF6
S2140129D403A4C70093852500E38087D86FF01FCB37
S2140129E413D797009306400063F2E614930640015A
S2140129F463E6E6321306C7059306B70513163600D3
S214012A043306C90003270600130686FF6318E6008B
S214012A146F008029032787006308E60083264700A2
S214012A2493F6C6FFE3E8D7FE0326C7002326C400B1
S214012A342324E40023248600232687006FF0DFD8AE
S214012A44130740016378F710130740056366F72EF2
S214012A5493D7C4009385F7061388E70613963500C3
S214012A646FF05FCB130E1E0093773E0013058500AF
S214012A74638007108327C5006FF05FDA032684009E
S214012A8493E514002322B4002326F60023A4C700EA
S214012A94B3049400232A99002328990093E7160087
S214012AA423A6140123A4140123A2F4003307E4008B
S214012AB4138509002320D700EF0000341305840092
S214012AC46FF01FC0B307F40003A74700138509007E
S214012AD41367170023A2E700EF00003213058400F2
S214012AE46FF01FBE93D53400938784006FF09FB8B0
S214012AF493E614002322D400B3049400232A9900F5
S214012B04232899009366170023A6140123A414010D
S214012B1423A2D400B307F4001385090023A0E70019
S214012B24EF00802D130584006FF09FB913D767005B
S214012B341306970393068703131636006FF05FECAC
S214012B44630C240703248900032C81008327440093
S214012B546FF09FE09385C7051388B7051396350074
S214012B646FF05FBB832783009385F5FF6390672827
S214012B7493F73500130383FFE39607FE0327490003
S214012B849347F6FFB3F7E7002322F900131616005E
S214012B94E3ECC7CEE30A06CE3377F600631A0700E2
S214012BA4131616003377F600130E4E00E30A07FEDB
S214012BB493050E006FF05FC537EC1400130C4CAF91
S214012BC403270C003387EA002320EC0083A6C18781
S214012BD49307F0FF6386F618B3874B41B387E70084
S214012BE42320FC0093FC7B00638C0C0CB38B9B4171
S214012BF4B717000093878700938B8B00B3859741A3
S214012C04B38A5B01B38555419395450113DA4501B2
S214012C1493050A0013850900EF20905B9307F0FFE4
S214012C246300F51833057541B30A450103270C0003
S214012C342324790193E71A00B305EA002320BC0094
S214012C4423A2FB00E30A24CF9306F00063F0660B8D
S214012C540327440093074BFF93F787FF1377170067
S214012C643367F7002322E400130650003307F40009
S214012C742322C7002324C70063E6F60083A74B007C
S214012C846FF09FCB9305840013850900EFF04FEA9C
S214012C94832B890083250C0083A74B006FF0DFC9C3
S214012CA4938A0A016FF01FC493D626409307100037
S214012CB4B397D7003365F5002322A9006FF01FD719
S214012CC4B3855B01B305B0409395450113DA45011D
S214012CD493050A0013850900EF20904F9307F0FF30
S214012CE4E312F5F4130A00006FF05FF4032C81007D
S214012CF49307100023A2FB0013850900EF00C00F01
S214012D0413050000032A8101832A4101032B0101D3
S214012D14832BC100832C41006FF09F9A93064005D4
S214012D2463E4E60413D7C7001306F7069306E7061B
S214012D34131636006FF0DFCC130740156364F704EF
S214012D4493D7F4009385870713887707139635007E
S214012D546FF05F9C03248900832744006FF0DFBF74
S214012D6423AE71876FF01FE89306401563E4E6040B
S214012D7413D7F7001306870793067707131636004B
S214012D846FF01FC8130740556364F70493D72401F3
S214012D949385D7071388C707139635006FF09F9757
S214012DA4938C8CFFB38A9A01B38A7A41130A000082
S214012DB46FF0DFE79306405563E4E60213D7270175
S214012DC41306D7079306C707131636006FF05FC3BB
S214012DD41306803F9305F0071308E0076FF09F93EF
S214012DE41306803F9306E0076FF09FC183274900CF
S214012DF46FF0DFD96780000067800000130101EDE2
S214012E042326111223229112232A511123267111EA
S214012E14938A0500930406002324D100930B05002E
S214012E24EF20903983270500138507002322F1023A
S214012E34EFF04F962320A10263880B0083A74B0370
S214012E44639407006F10C0700397CA0083A74A06ED
S214012E549316270163C00602B7E6FFFF9386F6FFC3
S214012E64372600003367C700B3F7D7002396EA0076
S214012E7423A2FA0613972701635407006F105049DB
S214012E848397CA0013F787006302072E03A70A0174
S214012E94630E072C93F7A7011307A000638AE72E96
S214012EA4B7470D002328611123248111130B010B4D
S214012EB49387073A374C0D0023248112232C4111A2
S214012EC4232EB10F23202113232E311123229111F6
S214012ED42320A111232E61072322010823200108A0
S214012EE4232A0100232C0100232E010013040B00C6
S214012EF42324010223280102232201002326F100B0
S214012F04130A0001130C4C5123207101938D040004
S214012F1483C70D00638C071E93840D0013075002AC
S214012F246386E72A83C7140093841400E39A07FE92
S214012F343389B441638CB41D0327410883270108F0
S214012F442320B40133072701938717002322240182
S214012F542322E1082320F1081307700013048400D8
S214012F64634EF7260327410083C70400330727016E
S214012F742322E100638C071893841400A30F010431
S214012F849309F0FF930B00001309000093068005D4
S214012F9403CD0400938D140093070DFE63E6F60437
S214012FA40327C10093972700B387E70083A7070089
S214012FB467800700930B000093070DFD130690002E
S214012FC403CD0D0013972B00B30B7701939B1B00C6
S214012FD4B38B770193070DFD938D1D00E372F6FE07
S214012FE493070DFEE3FEF6FA63020D122304A1090C
S214012FF4A30F01041307100093041000930C810817
S214013004130F09009309000023280100930F000001
S21401301493724F080329410863960200B387EB4075
S214013024E346F0448347F105638A070283270108D0
S2140130349306F1052320D400130919009306100002
S214013044938717002322D400232221092320F10881
S214013054930670001304840063C0F61A638A0F0291
S21401306483270108930601062320D40013092900A7
S21401307493062000938717002322D40023222109D4
S2140130842320F1089306700013048400E3C2F6506B
S21401309493070008E38EF208B3899940E342301B94
S2140130A493770F10639807748327010833099900EF
S2140130B423209401938717002322940023222109B5
S2140130C42320F1089306700063CCF62013048400D1
S2140130D4137F4F0063060F00B384EB40E346904E24
S2140130E413830B0063D4EB0013030700832741000B
S2140130F4B38767002322F100E31E092283C70D006C
S2140131042320010813040B00E39807E083274108F2
S214013114832B0100638407006F10007983D7CA00EC
S214013124032481120329011293F707048329C11189
S214013134032A8111032B0111032C8110832C4110C6
S214013144032D0110832DC10F638407006F10501CDB
S2140131548320C1120325410083244112832A41118D
S214013164832BC110130101136780000093850A00A5
S21401317413850B00EF208063630405006F1050195C
S2140131848397CA001307A00093F7A701E39AE7D031
S2140131948397EA00E3C607D0832681008320C11201
S2140131A41386040093850A0083244112832A41115D
S2140131B413850B00832BC110130101136F105038B4
S2140131C41369090193840D006FF09FDC3389B441C0
S2140131D4E394B4D783C704006FF0DFD90325010055
S2140131E41306C10793850A00EF105042E31805F24F
S2140131F413040B006FF01FD7032501001306C10744
S21401320493850A00232EE102232CE103232A51028B
S2140132142326F103EF10903FE31205F0032941083A
S2140132240327C103032F810383224103832FC10292
S21401323413040B006FF09FE283270108B7D6010041
S2140132449386464C2320D4001309190093061000D4
S214013254938717002322D400232221092320F1086F
S214013264930670001304840063D4F6006F104014B0
S214013274630406006F1040498326410193771F00BB
S214013284B3E7D700E38607E48327410283260102D6
S2140132942320F40083270108B38526012322D400C2
S2140132A4938717002322B1082320F10893067000A0
S2140132B463D4F6006F10406813048400832641012A
S2140132C493871700232094013389B6002322D40060
S2140132D4232221092320F10893067000E3D8F6DEA1
S2140132E4032501001306C10793850A002326E1027C
S2140132F42328E101EF109031E31205E20329410886
S214013304032F01010327C10213040B006FF05FDCD6
S21401331493778900E39C075E832781009387770070
S21401332493F787FF03A7070093878700232CE10001
S21401333403A7C7FF2324F100232EE100832CC10138
S214013344B7570D0003A7876D8326810183A7C76D31
S21401335493941C0093D414001385060093850400EB
S2140133641306070093860700EF9090186304050080
S2140133746F108007B7570D008326810103A7876D59
S21401338483A7C76D138506009385040013060700FB
S21401339493860700EF8050076344A0006F10C004B3
S2140133A40327810193850C0013060000130507000B
S2140133B493060000EF805005635405006F10C04D5E
S2140133C48346F1059307700463D4A7016F10C044C4
S2140133D4B7DC0100938C4C4823280100137FF9F7CE
S2140133E41307300093043000930900006384060039
S2140133F413071700937F2F00E38C0FC013072700D2
S214013404930F20006FF0DFC08326810093770901B4
S21401341403A70600938646002324D100639207126D
S2140134249376090493070700E39A064C634E071044
S2140134348346F10563C40904137FF9F7631E070283
S21401344413071000639E0920E310073A93741900CA
S214013454930C0B006382040493070003A307F10A89
S214013464930CF10A1387090063CC990223280100FF
S214013474E39006F86FF01FF813090F001307900086
S214013484E36EF76E93870703A307F10A130F090088
S21401349493041000930CF10A13870900E3D899FCEE
S2140134A413870400232801006FF09FFC8327810003
S2140134B483AB0700938747002324F100E3D40BD0A2
S2140134C4B30B70411369490093840D006FF05FAC30
S2140134D403CD0D009307A002938D1D006314FD0018
S2140134E46F10007E93070DFD9305900013070000EF
S2140134F41306900093090000E3E0F5AA03CD0D003E
S21401350493192700B389E900939919003387F900C1
S21401351493070DFD938D1D00E372F6FE93090700D4
S214013524E35C07A69309F0FF6FF01FA783278100CA
S2140135341369090103A70700938747002324F100B1
S21401354493070700E35607EEB307E0409306D0025D
S214013554130710006F00000A1369090893840D000D
S2140135646FF01FA31369090493840D006FF05FA223
S21401357403278100A30F0104930410008327070087
S214013584130747002324E1002304F108130710005E
S214013594930C81086FF0DFA69307B002A30FF10422
S2140135A493840D006FF0DF9E1369190093840D0058
S2140135B46FF01F9E8347F105E39607C09307000249
S2140135C4A30FF10493840D006FF09F9C1369890087
S2140135D493840D006FF0DF9B0327810013690901B3
S2140135E483270700130747002324E100130710006D
S2140135F493060000A30FD10463C80900137FF9F7EB
S214013604E38207E413090F0013061000E308C7E674
S214013614130620006306C706930C0B0013F7770006
S21401362413070703A38FECFE93D7370013860C000A
S214013634938CFCFFE39407FE9377190063840706D3
S214013644930700036300F7061306E6FFA38FFCFE49
S214013654B304CB40130F0900930C06006FF0DFE3AD
S214013664930710006314F7006F10803F9307200040
S21401367413090F006304F7006F104024930700003A
S21401368403268102930C0B0013F7F7003307E600B9
S2140136940347070093D74700938CFCFF2380EC0075
S2140136A4E39407FEB3049B41130F09006FF0DFDEBA
S2140136B403278100136909018327070013074700BD
S2140136C42324E100130700006FF09FF28326810094
S2140136D41377090183A70600938646002324D100A5
S2140136E4E31607F013770904E30207F0939707013B
S2140136F493D70701130710006FF09FEF832781000C
S214013704A30F010483AC070013884700E3860C2E3D
S2140137142324010163D409006F10800A138609006B
S2140137249305000013850C00EF20401C032881003C
S214013734631405006F10403AB30495418346F105BE
S21401374413C7F4FF1357F74123240101232801006B
S21401375433F7E400130F090093090000E39A06C83F
S2140137646FF05FC98326810037870000130707833C
S2140137742310E106138746002324E10037D701000E
S2140137841307874A2324E10283A706001369290045
S21401379413072000130D80076FF09FE58326810031
S2140137A41377090183A70600938646002324D100D4
S2140137B4E31A07F013770904E30607F09397070162
S2140137C493D70701130700006FF09FE2937709016F
S2140137D4E3880710832781000327410083A7070096
S2140137E423A0E70083278100938747002324F10061
S2140137F46FF00FF29307500663DAA735832681012B
S2140138048327C1011306000013850600938507006C
S21401381493060000232AE1022326E103EF80002613
S214013824032FC10203274103631605668327010894
S214013834B7D601009386464C2320D40013091900F9
S21401384493061000938717002322D400232221090C
S2140138542320F1089306700013048400E3CCF65287
S2140138648327410683264101E3D4D70683274102F1
S2140138748326010213048400232CF4FE8327010803
S2140138843309D900232ED4FE938717002322210956
S2140138942320F10893067000E3C2F60C8327410146
S2140138A49384F7FFE3569082930600018327010869
S2140138B463C496006F10C03AB7460D00938646510E
S2140138C42326E102032D01001307040093090001D6
S2140138D413840400930C70002328E10193840600EA
S2140138E46F00C000130404FFE3D0894E13090901D5
S2140138F493871700232097002322370123222109C7
S2140139042320F10813078700E3DEFCFC1306C10736
S21401391493850A0013050D00EF10404FE310058050
S214013924032941088327010813070B006FF09FFB47
S214013934B387EB406352F0F69306000103260108B1
S21401394463C4F6006F100020B7460D0093864651F7
S214013954232A91029305090013080001130907009D
S214013964930F7000130704002326E1031384070052
S214013974938406006F00C000130404FF635A88048E
S21401398493850501130616002320970023220701B9
S2140139942322B1082320C10813078700E3DECFFCE6
S2140139A4032501001306C10793850A00EF1000469C
S2140139B4631605F613080001130404FF8325410862
S2140139C40326010813070B00930F7000E34A88FAD5
S2140139D493860400032FC102832441039307040042
S2140139E41304070013070900138905003309F900B6
S2140139F4130616002322F4002320D40023222109CF
S214013A042320C108930770001304840063D6C7E813
S214013A14032501001306C10793850A00232AE10240
S214013A242326E103EF10803E631A05EE03294108BD
S214013A3403274103032FC10213040B006FF0CFE5E4
S214013A44B7460D008327010893864651635A3A09FF
S214013A549306090013087000130907002326E103DF
S214013A64130704001384090093090C006F00C000B7
S214013A74130404FF63588A04938606019387170088
S214013A8423208701232247012322D1082320F1087A
S214013A9413078700E35EF8FC032501001306C1073C
S214013AA493850A00EF108036631A05E6130404FFB3
S214013AB4832641088327010813070B0013087000A7
S214013AC4E34C8AFA032FC102138609009309040002
S214013AD4130407001307090013890600930606005A
S214013AE433093901938717002320D4002322340194
S214013AF4232221092320F10893067000130484006D
S214013B0463D0F6DA032501001306C10793850A007C
S214013B14232AE1022326E103EF10402F631005E078
S214013B240329410803274103032FC10213040B0091
S214013B346FF00FD7032501001306C10793850A000A
S214013B44EF10C02C630C05DA6FF04FDD83240108F7
S214013B5483264101930710002320940113091900B9
S214013B64938414009309840063D6D74893071000FE
S214013B742322F400232221092320910893077000AD
S214013B8463C697788327010283264102938414002F
S214013B943309F90023A2F90023A0D900232221091D
S214013BA423209108930770009389890063CC977842
S214013BB48327C1018326810113060000938507002C
S214013BC48327410113850600930600002326E1029C
S214013BD42328E1011384F7FFEF70506A032F0101D4
S214013BE40327C10263000546938C1C0093841400CA
S214013BF43309890023A0990123A2890023222109DC
S214013C04232091089307700093898900E3C89714C9
S214013C14832601039307C10693841400338926017E
S214013C2423A0F90023A2D9002322210923209108E5
S214013C34930770001384890063DC97C80325010089
S214013C441306C10793850A002326E1022328E1010E
S214013C54EF10C01B631405CC032941080327C102D6
S214013C64032F010113040B006FF08FC693060001A6
S214013C7403260108E3D8F668B7460D009386465036
S214013C84232E910293050900130800011309070066
S214013C9493037000130704002326F103232A510219
S214013CA4232CE10313840700938406006F00C000ED
S214013CB4130404FF635A880493850501130616004A
S214013CC423209700232207012322B1082320C108B9
S214013CD413078700E3DEC3FC032501001306C107AF
S214013CE493850A00EF108012631A05C213080001B7
S214013CF4130404FF832541080326010813070B0058
S214013D0493037000E34A88FA93860400832FC10262
S214013D1483224103032F81038324C10393070400F1
S214013D241304070013070900138905003309F90072
S214013D34130616002322F4002320D400232221098B
S214013D442320C108930770001304840063DCC7AC06
S214013D54032501001306C10793850A00232EE102F9
S214013D64232CE103232A51022326F103EF10000A30
S214013D74631605BA032941080327C103032F8103E8
S214013D8483224103832FC10213040B006FF08FA912
S214013D94032501001306C10793850A00232CE102BB
S214013DA4232AE10323265102EF104006631805B6C1
S214013DB40329410803278103032F41038322C102F8
S214013DC413040B006FF0CFAC9306000183270108A0
S214013DD4E3D69654B7460D0093864650138D0400D9
S214013DE493090001930C70002328E10093840600D4
S214013DF46F00C000130D0DFF63D6A9051309090151
S214013E0493871700232094002322340123222109B7
S214013E142320F10813048400E3DEFCFC03250100DF
S214013E241306C10793850A00EF00507E631805AE9A
S214013E34130D0DFF032941088327010813040B0002
S214013E44E3CEA9FB032701019386040093040D0026
S214013E5433099900938717002320D4002322940062
S214013E64232221092320F1089306700063DAF6A6BB
S214013E74032501001306C10793850A002328E100E0
S214013E84EF00D078631C05A8032941080327010124
S214013E946FF00FA5032641066350C0BA832741017C
S214013EA4832601019389070063C4F62A6356300307
S214013EB483270108330939012320940193871700C6
S214013EC423223401232221092320F10893067000BA
S214013ED413048400E3C8F61E93C7F9FF93D7F7418A
S214013EE4B3F9F90083270101B389374163463033B7
S214013EF4832641068327410163C6F63A93771F005A
S214013F046392073A8327410103260101B386D7400A
S214013F14B389C74063D4360193890600635A3003D4
S214013F24832701010326010833093901B38CFC00F8
S214013F341306160023209401232234012322210987
S214013F442320C1089307700013048400E3C6C73412
S214013F5413C6F9FF1356F641B3F7C900B384F64006
S214013F64635890969306000183270108E3DA964E78
S214013F74B7460D00938646512326E102032D010020
S214013F84130704009309000113840400930C7000C2
S214013F942328E101938406006F00C000130404FF84
S214013FA463D48962130909019387170023209700B4
S214013FB423223701232221092320F108130787002E
S214013FC4E3DEFCFC1306C10793850A0013050D0006
S214013FD4EF00D0636314059403294108832701087D
S214013FE413070B006FF09FFB93040000930C0B0068
S214013FF46FF08FCA93761F00E39A06B62322F40065
S214014004232221092320910893077000E3D297C045
S214014014032501001306C10793850A002326E1023E
S2140140242328E101EF00905E631A058E03294108F7
S214014034832401080327C102032F010193090B00FE
S2140140446FF01FBD8326410193071000E3D2D7BC4E
S21401405493071001E3DCD740B7460D00938646511B
S21401406493870900930C000193090700130D700050
S214014074130709002328E101138906006F00C00015
S214014084130404FF63D88C76130707019384140082
S21401409423A0270123A297012322E10823209108C4
S2140140A493878700E35E9DFC032501001306C10781
S2140140B493850A00EF009055630405006FF00F86A0
S2140140C4032741088324010893070B006FF05FFB65
S2140140D493771F00639407006FE09FFF6FF00FF95B
S2140140E4937F090463880FEE832781000327410029
S2140140F483A707002390E7006FF0CFEE131707019D
S21401410413570741930707006FF0CFC303278100B6
S21401411413050104832707009304470003A7070038
S2140141242320E10403A747002322E10403A7870011
S2140141342324E10483A7C7002326F104EF809060BB
S214014144232CA100232EB100232491006FF00F9F8E
S21401415493890600E34E30D56FF01FD8032501007E
S2140141641306C10793850A002326E1022328E101E9
S214014174EF00D049630405006FE05FFA03294108A4
S2140141840327C102032F010113040B006FF00FF183
S214014194B7D70100938747492324F1028326810078
S2140141A41377090183A70600938646002324D100CA
S2140141B4631A070013770904630607009397070138
S2140141C493D707019376190013072000638206C26A
S2140141D4638007C2930600032300D106A300A10748
S2140141E4136929006FF0CFC0B7D701009387874AB8
S2140141F42324F1026FF09FFA930760009384090069
S21401420463EC376FB7DC0100138704002324010134
S214014214938CCC4B6FE0DFDE930600018327010805
S214014224E3DA3629B7460D0093050700938646510F
S214014234130704001306090013840900130D000173
S214014244930470002326E10313890600938905006D
S2140142546F00C000130404FF63568D5C1306060149
S21401426493871700232027012322A7012322C108AD
S2140142742320F10813078700E3DEF4FC032501007D
S2140142841306C10793850A00EF005038630405003E
S2140142946FE0DFE8032641088327010813070B00B4
S2140142A46FF05FFB83274102032601021304840097
S2140142B4232CF4FE832701083309C900232EC4FEE8
S2140142C493871700232221092320F108130670007F
S2140142D4E35AF6C2032501001306C10793850A00B3
S2140142E4232AE1022326E103EF005032630405008A
S2140142F46FE0DFE2832641060329410803274103D1
S214014304032FC10213040B006FF0DFBF0325010066
S2140143141306C10793850A002326E1022328E10137
S214014324EF00D02E630405006FE05FDF0329410828
S214014334832401080327C102032F010193090B00FB
S2140143446FF05F84032501001306C10793850A00F5
S2140143542326E1022328E101EF00502B6304050024
S2140143646FE0DFDB03294108832401080327C10228
S214014374032F010193090B006FF09F83930C0B002D
S2140143841306A0001305900033F7C702938CFCFFB5
S21401439493850700130707032380EC00B3D7C702EE
S2140143A4E364B5FEB3049B41130F09006FF0CF8E8F
S2140143B4032501001306C10793850A002326E1029B
S2140143C42328E101EF009024630405006FE01FD564
S2140143D403264106032941080327C102032F0101CD
S2140143E413040B006FE0DFE8032881018327C10172
S2140143F41306080013050800938607009385070033
S214014404EF80100F6316057E1377FDFD9307F0FF0B
S2140144142326E102136F0910638CF966930770046F
S2140144246306F7648327C10193020000938407009F
S21401443463C0074E9307600613870900930630008E
S2140144446310FD4E03268101130881069307410676
S214014454130506009305050003250100930841078B
S21401446413860400232A5102232AE1012328E100AA
S214014474EF1050250327010193076006032F41011E
S21401448483224103930C05003308E500631CFD00F9
S21401449483C60C00930700036380F6568327410600
S2140144A43308F8008327810193850400130600006E
S2140144B41385070093060000232A5102232A0101CB
S2140144C42328E101EF70805B032F010103284101DA
S2140144D483224103630605428327410763FE0701DE
S2140144E49306000313871700232AE1062380D700C7
S2140144F483274107E3E807FF032741062328E10052
S214014504B3879741232AF1008327C1021307700456
S2140145146384E714930760066312FD1803270101F9
S21401452493771900B3E737016350E07C6392076E13
S21401453483240101130D6006138704006388025067
S2140145449307D002A30FF104930900006FE05FEA1A
S21401455413850B00EFD08F936FE01F8F03250100A7
S2140145641306C10793850A002326E1022328E101E5
S214014574EF00D009630405006FE05FBA0329410820
S21401458483240108032F01010327C10293090B00A9
S2140145946FF00FE8032501001306C10793850A008F
S2140145A42326E1022328E101EF00500663040500F7
S2140145B46FE0DFB6032941080327C102032F010177
S2140145C413040B006FF0CFA993860400032F010197
S2140145D493040400130407000327C1023309990056
S2140145E4938717002320D4006FE01FAD63C00766CE
S2140145F48324C1019302000093091000032781015B
S2140146049307410693084107130507009305050020
S2140146140325010013088106138709009306200069
S21401462413860400232A51002328E101EF10900980
S21401463493771900032F010183224101930C05008E
S214014644639E074A832741062328F10083274107EF
S214014654B387A740232AF100032701019307D0FF5C
S214014664634CF70263CAE902832741010327010168
S2140146746340F74E937F190083270101639A0F5A0B
S21401468413C7F7FF1357F74133F7E700938407007F
S214014694130D70066FF09FEA130DEDFF032701015A
S2140146A42306A1079307B0029308F7FF23221107F5
S2140146B463CC0832A306F1069307900063C0172D56
S2140146C49387080313070003A307F1069307400023
S2140146D42307E1062328F102032741018326010368
S2140146E493071000B304D70063D0E744832701027D
S2140146F423280100B384F40013C7F4FF1357F741CA
S21401470433F7E4006FF09FE3832741028326010217
S21401471413048400232CF4FE83270108B3852601A1
S214014724232ED4FE938717002322B1082320F108F1
S2140147349306700063C2F620634406006FE01FB858
S214014744930600FFB304C040635AD65CB7460D0017
S214014754938646512328E1009309000113070400B8
S21401476413097000130D0F00138406006F00C000B8
S214014774938404FF63D899409385050193871700B2
S21401478423208700232237012322B1082320F1089E
S21401479413078700E35EF9FC032501001306C1072E
S2140147A493850A00EF008066630405006FE01F9797
S2140147B4832541088327010813070B006FF05FFB6D
S2140147C413850C00EFD00FFD8346F1051347F5FF63
S2140147D41357F74123280100930405003377E500B6
S2140147E4130F090093090000638406006FE05FC09D
S2140147F46FE05FC0032F0101930609001309070048
S21401480413870900938907003309890093841400E8
S21401481423A0D9006FF04FBEB7DC0100938C8C48FF
S2140148246FE09FBB032FC10293850900930609001D
S21401483493090400130906001304070013870500EF
S21401484433093901938717002320D4002322340126
S214014854232221092320F1089306700013048400FF
S21401486463D8F6E8032501001306C10793850A00F9
S214014874232AE1022326E103EF00405963040500DD
S2140148846FE0DF890329410803274103032FC1028F
S21401489413040B006FF0CFE59307D002A30FF104C6
S2140148A49306D0026FE01FB21306C10793850A0070
S2140148B413850B00EF0080556FE05F8693070000B9
S2140148C46FE09FD5032501001306C10793850A00EF
S2140148D4232AE1022326E103EF0040536304050083
S2140148E46FE0DF830329410803274103032FC10235
S2140148F413040B006FF04FDE930460006FF09F907B
S214014904832741062328F100930708006FF05FBF51
S214014914B7040080B3C4F4009302D0026FF09FB1D1
S2140149240327C10293075004E31AF7CC138719002F
S214014934930620006FF01FB1032501001306C1077B
S21401494493850A002326E1022328E101EF00004CA7
S214014954630405006FE08FFC0326410683254108A6
S214014964832701080327C102032F010113040B0047
S214014974634406006FE09F946FF09FDC1305B10754
S214014984930605001306A0001308300633E7C80291
S21401499493870600938508009386F6FF130707039B
S2140149A4A38FE7FEB3C8C802E342B8FE93880803A0
S2140149B41387E7FFA38F16FF6378A72E9306E106F6
S2140149C4034607001307170093861600A38FC6FE37
S2140149D4E318A7FE1307010FB307F7409387F7F809
S2140149E42328F1026FF05FCF93071000B388E740E6
S2140149F49307D0026FF01FCC8326810193850400B0
S214014A04130600001385060093060000232C5102AA
S214014A14232A0103232AE1002328E101EF7000067B
S214014A24032F010103274101032841038322810344
S214014A3463140524832741063308F8002328F1006C
S214014A44B3079841232AF1006FF05FAD8346F10561
S214014A5493090000638406006FE09F996FE09F99B5
S214014A6413090F00930700006FE0DFA18327C1013C
S214014A74E38E09B69384070093020000E3D007B8D7
S214014A84B7040080B3C4F4009302D0026FF01FB7DA
S214014A94930960006FF01F99032501001306C107EF
S214014AA493850A002326E1022328E101EF0000365C
S214014AB4630405006FE08FE68326410683274101E0
S214014AC4032941080327C102032F010113040B0024
S214014AD4B386D7406FF0CFC78346F105232801007C
S214014AE41387090093840900130F09009309000032
S214014AF4638406006FE0DF8F6FE0DF8F33083501D4
S214014B046FF05F9AB7460D00938646506FF00FA27A
S214014B149307F0FF2322F1006FE08FE3B7460D0001
S214014B24938646506FF0CFB2937719002328F1008D
S214014B34E39E07BA13C7F4FF1357F74133F7E400AC
S214014B446FF0DF9FB7460D00938646516FE01FEA6C
S214014B548327410103270102B384E7008327010168
S214014B646348F00083270101B388F4409384180056
S214014B7413C7F4FF1357F74133F7E400130D700618
S214014B846FF0DF9B9306040013040700032701015B
S214014B94130F0D00B3859500938717002320D400C7
S214014BA4232294002322B1082320F10893067000DF
S214014BB463C4F6006FE04FF0032501001306C10736
S214014BC493850A002326E1022328E101EF0000244D
S214014BD4630405006FE08FD4832541088327010809
S214014BE40327C102032F010113040B006FE00FED2D
S214014BF48327C10163C2070A8346F105930770043C
S214014C0463C6A709B7DC0100938CCC486FE0CFFCE0
S214014C1483270102B388E900130D6006B384F80004
S214014C2413C7F4FF1357F74133F7E4006FF01F91EE
S214014C3403270102130D7006B384E70013C7F4FFBC
S214014C441357F74133F7E4006FF05F8FB704008022
S214014C54B3C4F4009302D002930910006FF01F9AB4
S214014C64B7460D00938646516FF05F97B7460D0021
S214014C74938646516FF05FB993071000B387E740F8
S214014C842322F1063308F8006FF0DF81B7DC010058
S214014C94938C0C496FE04FF49307D002A30FF104F1
S214014CA49306D0026FF09FF5930720002328F102A4
S214014CB46FF09FA2B7460D00938646516FF05FB81A
S214014CC48327810083A907009387470063C80900E7
S214014CD42324F10093840D006FE08FAB9309F0FF5A
S214014CE42324F1006FF01FFF639A070013071000D7
S214014CF4130D6006930410006FF05F84832701028E
S214014D04130D600693881700B384380113C7F4FFA4
S214014D141357F74133F7E4006FF05F82B7460D008F
S214014D24938646516FF01FE79307050003A5818715
S214014D349306060013860500938507006FE00F8C23
S214014D44130101B88397C50003D7E500232C8146D8
S214014D5413840500B70501009385D5FF032E440689
S214014D640323C4018328440213170701B3F7B700CA
S214014D74B3E7E70013080040232AF10093058100F6
S214014D8493070107232A914623282147232E1146F8
S214014D94130905002326C1072322610223261103D2
S214014DA42324F100232CF10023280101232E0101E1
S214014DB423200102EFE08F8493040500635C05025F
S214014DC48357410193F70704638807008357C40098
S214014DD493E707042316F4008320C147032481477D
S214014DE4032901471385040083244147130101481D
S214014DF4678000009305810013050900EF00C03B9E
S214014E04E30005FC9304F0FF6FF09FFB8327860005
S214014E14130101FF23248100232611001304060035
S214014E24639E07008320C10023220400032481001B
S214014E34130500001301010167800000EF0000461E
S214014E448320C100232404002322040003248100B8
S214014E541301010167800000130101FF23261100DD
S214014E642320210163880502232481002322910043
S214014E741384050093040500630605008327450390
S214014E84638C070C8317C400639207020324810012
S214014E94832441008320C10013090000130509007F
S214014EA40329010013010101678000009305040032
S214014EB413850400EF00800B8327C4021309050041
S214014EC4638A07008325C40113850400E78007006D
S214014ED4634405068357C40093F7070863960706D9
S214014EE483250403638C0500930704046386F50095
S214014EF413850400EFD0CFC323280402832544047A
S214014F046388050013850400EFD08FC223220404AE
S214014F14EFC00FFA23160400EFC0CFF98320C100B7
S214014F240324810083244100130509000329010099
S214014F3413010101678000008357C4001309F0FFC1
S214014F4493F70708E38E07F8832504011385040005
S214014F54EFD00FBE6FF0DFF8EFC04FF36FF09FF2A4
S214014F649305050003A581876FF01FEF0397C5001E
S214014F74130101FE232C810023263101232E110067
S214014F84937787001384050093090500639007123D
S214014F94B71700009387078083A64500B367F70019
S214014FA42396F5006352D018032884026304080E7E
S214014FB4232A91009316370183A4090023A009002C
S214014FC48325C40163CE061613060000930610005B
S214014FD413850900E70008009307F0FF1306050090
S214014FE46304F51A8317C400032884028325C401C5
S214014FF493F74700638E07000327440083270403BF
S2140150043306E640638607008327C4033306F64067
S2140150149306000013850900E70008009307F0FFD4
S2140150246314F51283A609009307D0010317C4007D
S21401503463EAD716B707402093871700B3D7D7007C
S21401504493F717006380071603260401B7F7FFFFDB
S2140150549387F77FB377F7002316F400232204001F
S2140150642320C4009317370163D407006382061014
S2140150748325040323A0990063840510930704047D
S2140150846386F50013850900EFD08FAA83244101B6
S21401509423280402130500008320C101032481018F
S2140150A48329C1001301010267800000232821011E
S2140150B403A9050163020908232A910083A40500B4
S2140150C41377370023A02501B384244193070000F6
S2140150D46314070083A745012324F4006348900062
S2140150E46F0040053309A9006356900483274402E0
S2140150F48325C40193860400130609001385090059
S214015104E7800700B384A440E34EA0FC0317C40061
S2140151140329010113670704832441012316E400CC
S2140151241305F0FF6FF05FF783A6C503E34ED0E6E1
S2140151346FF05FF683244101032901016FF09FF5A7
S214015144032604056FF0DFEA0317C400832604016F
S214015154B7F7FFFF9387F77FB377F7002316F400BB
S214015164232204002320D40093173701E3D207F047
S214015174832504032328A40423A09900E39005F0BF
S214015184832441016FF01FF183A70900E38C07E430
S2140151941307D001638CE700130760016388E700F7
S2140151A40317C400136707046FF01FF723A09900C1
S2140151B4832441016FF01FEE130101FE232C8100AD
S2140151C4232E1100130405006306050083274503F7
S2140151D4638A07028397C500639C07008320C10185
S2140151E403248101130500001301010267800000F6
S2140151F413050400032481018320C1011301010264
S2140152046FF0DFD62326B100EFC04FC88325C10057
S2140152146FF05FFC630005069305050003A581870F
S2140152246306050083274503638C07008397C5003F
S2140152346396070013050000678000006FF01FD314
S214015244130101FE2326B1002324A100232E1100FD
S214015254EFC0CFC38325C100032581008397C50012
S214015264639807028320C10113050000130101029C
S2140152746780000037560D00B755010037550D00FD
S214015284130606039385C51B130505046FC0CFC516
S2140152948320C101130101026FF05FCD83278600CD
S2140152A46384072C8396C500130101FD2324810220
S2140152B4232C4101232861012326110293F786003A
S2140152C4130B0600130A050013840500638E0708F2
S2140152D483A70501638A0708232291022320210359
S2140152E4232E3101232A510193F7260083240B0030
S2140152F46384070A832744028325C401B70A00800E
S2140153049309000013090000938A0AC01386090052
S21401531413050A00630209049306090063F42A01CB
S21401532493860A00E78007006350A04683278B0014
S214015334B389A9003309A940B387A7402324FB00F6
S2140153446386071A832744028325C401138609004A
S21401535413050A00E31209FC83A9040003A9440007
S214015364938484006FF09FFA9305040013050A00E2
S214015374EF00C043631C051C8316C400232291025C
S21401538423202103232E3101232A510193F72600DA
S21401539483240B00E39007F623267101232481015D
S2140153A493F716006396071C8327040003278400DB
S2140153B4B70A008023229101930B00009309000091
S2140153C4938AFAFF13850700130C070063820910FA
S2140153D413F6062063080628930C070063E6E932F1
S2140153E413F70648630A07080326440183250401C4
S2140153F4131716003307C7003389B740135CF70148
S214015404330CEC0093071900135C1C40B387370177
S21401541413060C006376FC00138C07001386070042
S21401542493F60640638E06309305060013050A00BC
S214015434EFD04FA0930C0500630C053483250401BB
S21401544413060900EF00406F8357C40093F7F7B7BC
S21401545493E707082316F40033852C01B3072C4180
S21401546423289401232A84012320A400138C0900F1
S2140154742324F400938C090013860C0093850B00F7
S214015484EF00C05A03278400832704001389090008
S21401549433078741B38797012324E4002320F400CC
S2140154A49309000083278B00B38B2B01B387274115
S2140154B42324FB0063860702832704000327840052
S2140154C48316C40013850700130C0700E39209F042
S2140154D483AB040083A94400938484006FF09FEE99
S2140154E4832BC100032C8100832C41008320C1023D
S2140154F40324810283244102032901028329C10171
S214015504832A4101032A8101032B010113050000AB
S21401551413010103678000009305040013050A00C4
S214015524EFF09FC9630E050A8317C400832BC100DD
S214015534032C810083244102032901028329C1012A
S214015544832A410193E707042316F4008320C1024A
S21401555403248102032A8101032B01011305F0FFB1
S2140155641301010367800000130500006780000033
S214015574930A000013050000130C000093090000B1
S21401558463820908630A050893870A00938B090056
S21401559463F43701938B0700032504008327040172
S2140155A4032984008326440163F6A7003309D9003E
S2140155B46344790963C0DB16832744028325C40147
S2140155C413060C0013050A00E780070013090500FB
S2140155D4E35CA0F4B38A2A4113051000E38E0AF2B1
S2140155E483278B00330C2C01B3892941B3872741C8
S2140155F42324FB00E39607F8832BC100032C8100C8
S2140156046FF0DFEE83A9440093870400938484003B
S214015614E38A09FE03AC0700138609009305A0007C
S21401562413050C00EF00802C630A051413051500FE
S214015634B30A85416FF05FF593050C001306090064
S214015644EF00C03E832704009305040013050A00F7
S214015654B38727012320F400EFF01FB6E30C05F609
S2140156646FF09FEC8326040163E2F60403264401EB
S21401567463EEC9029387090063F43A0193870A002B
S214015684B3E6C702032744028325C40113860B002D
S21401569413050A00B386D740E7000700130905007F
S2140156A4635AA004B38929416FF0DFDF13090700A9
S2140156B463F4E9001389090013850700130609003A
S2140156C493850B00EF0080360327840083270400AC
S2140156D433072741B38727012324E4002320F4005A
S2140156E4E31207FC9305040013050A00EFF0DFAC90
S2140156F4E30A05FA8317C400832BC100032C810037
S214015704832C41006FF01FE3138C0900938C09006E
S2140157146FF09FD613860B0093050C00EF00003143
S214015724032784008327040013890B00330777417A
S214015734B38777012324E4002320F4006FF09FE964
S21401574413050A00EF209079930C0500E31605D0A3
S2140157548325040113050A00EFC09FBD8317C40007
S2140157641307C000832BC100032C8100832C410046
S2140157742320EA0093F7F7F76FF0DFDB938719002E
S214015784938A07006FF09FE08317C4006FF09FDAD7
S2140157941307C0008317C400832BC100032C8100A8
S2140157A4832C41002320EA006FF0DFD883A781878A
S2140157B4130101FF232481002322910023261100D3
S2140157C493040500138405006386070003A74703B3
S2140157D4630C070E8317C40013F78700630A0706D2
S2140157E4032704016306070893F617006388060275
S2140157F4832644012324040013050000B306D04085
S214015804232CD400630A07028320C10003248100E9
S21401581483244100130101016780000093F62700E9
S2140158241306000063940600032644012324C400DF
S21401583413050000E31A07FC13F70708E30607FC41
S21401584493E707042316F4001305F0FF6FF0DFFB5C
S21401585413F707016300070813F74700631C0702E1
S2140158640327040193E787002316F400E31E07F6D3
S21401587493F6072813060020E388C6F6930504006A
S21401588413850400EF30803C8317C400032704010A
S2140158946FF09FF583250403638E05001307040444
S2140158A46388E50013850400EFC09FA88317C4002E
S2140158B4232804020327040193F7B7FD23220400D7
S2140158C42320E4006FF01FFA13850700EFB01FDCF6
S2140158D46FF05FF01307900023A0E40093E707043A
S2140158E42316F4001305F0FF6FF01FF293773500CB
S2140158F493F6F50F638A07029307F6FF630E060213
S2140159041306F0FF6F0080011305150013773500A9
S214015914630E07009387F7FF6380C70203470500FA
S214015924E314D7FE678000009307060013073000D0
S2140159346368F7006390070613050000678000009C
S21401594493F5F50F13978500B305B7001397050173
S214015954B708FFFE37888080B385E5009388F8EFA3
